:040A3F0002080000A9
:050A3A0012088C80FB96
:0A09B200C3740A9582FFE49583FEEA
:1009BC00EF1FAA0670011E4A600BE4FDEDC3947193
:0509CC0050EE0D80F764
:0109D1002203
:0D0A2D00C293C292C291C290D2CCD2CD220F
:1009D200D2CCD2CDD293C292C291D2907F647E0009
:0309E2000209BC4B
:1009E500C2CCC2CDC293D292D291C2907F647E0016
:0309F5000209BC38
:1009F800C2CCD2CDC293D292C291D2907F647E00F3
:030A08000209BC24
:100A0B00D2CCC2CDD293C292D291C2907F647E00DF
:030A1B000209BC11
:0408C6008F828E830C
:1008CA00750A00750B1EC2CCD2CDC291D290D293BA
:1008DA00E50B150BAE0A7002150A4E6010C292AFF4
:0D08EA0082AE831209BCD2921209B280E3E3
:0108F70022DE
:0408F8008F828E83DA
:1008FC00750C00750D1ED2CCC2CDD293C292D29182
:10090C00E50D150DAE0C7002150C4E6010C290AFBB
:0D091C0082AE831209BCD2901209B280E3B2
:0109290022AB
:04092A008F828E83A7
:10092E00750E00750FC8C2CCD2CDC293D292D291A1
:10093E00E50F150FAE0E7002150E4E6010C290AF81
:0D094E0082AE831209BCD2901209B280E380
:01095B002279
:04095C008F828E8375
:10096000750E00750FC8D2CCC2CDC290D291D29272
:10097000E50F150FAE0E7002150E4E6010C293AF4C
:0D09800082AE831209BCD2931209B280E34B
:01098D002247
:0E0A1E0000007F047E047D04DDFEDEFCDFFAB6
:010A2C0022A7
:10088C00D2B33094063095030209D220940C3095E3
:10089C00097F017E0012092A801830940C209509DA
:1008AC007F017E0012095C800920940D20950A12AC
:0A08BC000A2DC2B3120A1ED2B322A5
:10098E0020B60620B7030209D220B60A30B7077F79
:10099E00017E0002095C30B60A20B7077F017E0097
:0409AE0012092A22DE
:03000000020800F3
:0C080000787FE4F6D8FD75810F020847F0
:10080C00020A3AE493A3F8E493A34003F68001F2BE
:10081C0008DFF48029E493A3F85407240CC8C333ED
:10082C00C4540F4420C8834004F456800146F6DFBC
:10083C00E4800B0102040810204080900A3FE47E03
:10084C00019360BCA3FF543F30E509541FFEE493B1
:10085C00A360010ECF54C025E060A840B8E493A378
:10086C00FAE493A3F8E493A3C8C582C8CAC583CAA3
:10087C00F0A3C8C582C8CAC583CADFE9DEE780BE5B
:010A430000B2
:00000001FF
