:040A74000208000074
:050A6F0012088C80FB61
:0A098E00C3740A9582FFE49583FE0E
:10099800EF1FAA0670011E4A600BE4FDEDC39471B7
:0509A80050EE0D80F788
:0109AD002227
:0D0A5500C293C292C291C290D2CCD2CD22E7
:1009AE00D2CCD2CDD293C292C291D2907F647E002D
:0309BE0002099893
:1009C100C2CCC2CDC293D292D291C2907F647E003A
:0309D10002099880
:1009D400C2CCD2CDD293C292D291C2907F647E0017
:0309E4000209986D
:1009E700D2CCC2CDC293D292C291D2907F647E0004
:0309F7000209985A
:0D0A6200C293C292C291C290D2CCD2CD22DA
:1009FA00D2CCD2CDD293C292C291D2907F647E00E1
:030A0A0002099846
:100A0D00C2CCC2CDC293D292D291C2907F647E00ED
:030A1D0002099833
:100A2000C2CCD2CDC293D292C291D2907F647E00CA
:030A300002099820
:100A3300D2CCC2CDD293C292D291C2907F647E00B7
:030A43000209980D
:0408C6008F828E830C
:1008CA00750E00750F1EC2CCD2CDC291D290D293B2
:1008DA00E50F150FAE0E7002150E4E6010C292AFE4
:0D08EA0082AE83120998D29212098E80E32B
:0108F70022DE
:0408F8008F828E83DA
:1008FC00750E00750F1ED2CCC2CDD293C292D2917E
:10090C00E50F150FAE0E7002150E4E6010C290AFB3
:0D091C0082AE83120998D29012098E80E3FA
:0109290022AB
:04092A008F828E83A7
:10092E00750A00750BC8C2CCD2CDC293D292D291A9
:10093E00E50B150BAE0A7002150A4E6010C290AF91
:0D094E0082AE83120998D29012098E80E3C8
:01095B002279
:04095C008F828E8375
:10096000750C00750DC8D2CCC2CDC290D291D29276
:10097000E50D150DAE0C7002150C4E6010C293AF54
:0D09800082AE83120998D29312098E80E393
:01098D002247
:0E0A460000007F047E047D04DDFEDEFCDFFA8E
:010A5400227F
:10088C00D2B3309406309503020A0D20940C3095A7
:10089C00097F017E001208F8801830940C2095090D
:1008AC007F017E001208C6800920940D20950A1243
:0A08BC000A62C2B3120A46D2B32248
:03000000020800F3
:0C080000787FE4F6D8FD75810F020847F0
:10080C00020A6FE493A3F8E493A34003F68001F289
:10081C0008DFF48029E493A3F85407240CC8C333ED
:10082C00C4540F4420C8834004F456800146F6DFBC
:10083C00E4800B0102040810204080900A74E47ECE
:10084C00019360BCA3FF543F30E509541FFEE493B1
:10085C00A360010ECF54C025E060A840B8E493A378
:10086C00FAE493A3F8E493A3C8C582C8CAC583CAA3
:10087C00F0A3C8C582C8CAC583CADFE9DEE780BE5B
:010A7800007D
:00000001FF
