:1009B00075985075D7E075D6FE758E14438E01D2AA
:0409C000ACD2AF22E4
:080A91008F993099FDC29922F2
:0300230002099738
:10099700C0D075D000C00730980AC298859900AFBB
:0909A70000120A91D007D0D032F1
:100800001209B0C2AF30983CC298C293C292C29152
:10081000C290C2CCC2CD859900E50024D0602224CC
:10082000FE600F146011146013240370171209FD89
:1008300080121209C4800D1209EA80081209D780BB
:0808400003120A6BD2AF80BB6A
:10094A0020B60620B7030209D720B60A30B7077FB8
:10095A00017E0002000030B60A20B7077F017E0040
:0D096A0002000020B60620B703120A6B221F
:0A097700C3740A9582FFE49583FE25
:10098100EF1FAA0670011E4A600BE4FDEDC39471CE
:0509910050EE0D80F79F
:01099600223E
:0D0A6B00C293C292C291C290D2CCD2CD22D1
:1009C400D2CCD2CDD293C292C291D2907F647E0017
:0309D40002098194
:1009D700C2CCC2CDC293D292D291C2907F647E0024
:0309E70002098181
:1009EA00C2CCD2CDD293C292D291C2907F647E0001
:0309FA000209816E
:1009FD00D2CCC2CDC293D292C291D2907F647E00EE
:030A0D000209815A
:0D0A7800C293C292C291C290D2CCD2CD22C4
:100A1000D2CCD2CDD293C292C291D2907F647E00CA
:030A200002098147
:100A2300C2CCC2CDC293D292D291C2907F647E00D7
:030A330002098134
:100A3600C2CCD2CDC293D292C291D2907F647E00B4
:030A460002098121
:100A4900D2CCC2CDD293C292D291C2907F647E00A1
:030A59000209810E
:040882008F828E8350
:1008860075080075091EC2CCD2CDC291D290D29302
:10089600E5091509AE08700215084E6010C292AF40
:0D08A60082AE83120981D29212097780E39D
:0108B3002222
:0408B4008F828E831E
:1008B800750A00750B1ED2CCC2CDD293C292D291CA
:1008C800E50B150BAE0A7002150A4E6010C290AF08
:0D08D80082AE83120981D29012097780E36D
:0108E50022F0
:0408E6008F828E83EC
:1008EA00750C00750DC8C2CCD2CDC293D292D291EA
:1008FA00E50D150DAE0C7002150C4E6010C290AFCE
:0D090A0082AE83120981D29012097780E33A
:0109170022BD
:040918008F828E83B9
:10091C00750E00750FC8D2CCC2CDC290D291D292B6
:10092C00E50F150FAE0E7002150E4E6010C293AF90
:0D093C0082AE83120981D29312097780E305
:01094900228B
:0E0A5C0000007F047E047D04DDFEDEFCDFFA78
:010A6A002269
:10084800D2B3309406309503020A2320940C3095D5
:10085800097F017E001208B4801830940C20950995
:100868007F017E00120882800920940D20950A12CB
:0A0878000A78C2B3120A5CD2B32260
:03000000020A856C
:0C0A8500787FE4F6D8FD75810F020800B0
:00000001FF
