:03000000020100FA
:100100003186310E7F57313C318F31D480FA9002E5
:100110006F7F007940EF93F70F09BF38F89002A77F
:100120007F007978EF93F70F09BF0FF89002B87F3F
:10013000007987EF93F70F09BF10F822C2AF7589D6
:1001400020758DF4758BF4758700D28E7598507577
:1001500099E13099FDC2993098FDC298E59964E221
:1001600070ED784079008699E926F9083099FDC24A
:1001700099DFF389993099FDC2993098FDC298E5CD
:1001800099640070E12231E35121512C51392275DB
:1001900090F0E590B4F0030201085146E590B4F008
:1001A0000302010875F0FE85F090E59054F0B4F07C
:1001B00007E5F023F5F080EF8590F090024F7BFF8C
:1001C0000BEB93B5F0FAEBF53051467590F0E590F6
:1001D000B4F0F82290025FE53093F5407F01F5A07E
:1001E000313C2275800131F375803831F375800F11
:1001F00031F322C2B5C2B6C2B75146D2B7227F0090
:10020000EF9351140FBF39F8227F00EF9351140F71
:10021000BF10F822F580D2B5C2B6C2B75146D2B7E8
:060220002275804031F35D
:1002260090026F31FE22514675808031F39002A70D
:1002360031FE2251467580C031F39002B851092231
:100246007B147CFADCFEDBFA22777B7D7EB7BBBDB6
:10025600BED7DBDDDEE7EBEDEEC0F9A4B099928206
:10026600F880908883C6A1868E041F151F151F046B
:1002760007050B1B091F091D09080B1D0A1F1B0D6E
:100286000B0A0D0F181F0D0F080E1F150E041F0465
:100296000A0000000000000000000000000000004E
:1002A60000000131393034020304202020202005CB
:1002B600060738323036313930343238203A442065
:0B02C60020202020070707070707077C
:00000001FF
