:1008C2001209204469616E4B653139303479797788
:1008D2003A442000111D303132333435363738393D
:0708E200414243444546007A
:10092A00759850758920758DFDD28ED2AFD2AC22C2
:0C093A007F017E267D82DDFEDEFADFF606
:01094600228E
:1008EA00C2B68F807F017E001208FBD2B77F057ED9
:0108FA0000FD
:1008FB00EF1FAA0670011E4A600BE4FDEDC3940DB9
:05090B0050EE0D80F725
:0109100022C4
:0A094700C2B7C2B51208EAC2B72217
:0A095100C2B7D2B51208EAC2B722FD
:100911007F381209477F0C1209477F061209477F6A
:09092100011209477F8002094719
:10088C0012092A120911E4F52F7409252FF8E6FF35
:10089C00120951052FE52FC3941040ED309806C274
:1008AC0098AF998F087FC0120947741D2508F8E688
:0608BC00FF12095180E665
:03000000020800F3
:0C080000787FE4F6D8FD75812F020847D0
:10080C0002088CE493A3F8E493A34003F68001F26E
:10081C0008DFF48029E493A3F85407240CC8C333ED
:10082C00C4540F4420C8834004F456800146F6DFBC
:10083C00E4800B01020408102040809008C2E47E82
:10084C00019360BCA3FF543F30E509541FFEE493B1
:10085C00A360010ECF54C025E060A840B8E493A378
:10086C00FAE493A3F8E493A3C8C582C8CAC583CAA3
:10087C00F0A3C8C582C8CAC583CADFE9DEE780BE5B
:0108E900000E
:00000001FF
