:10095A001108204469616E4B6531393034797977F1
:10096A003A4400111B303132333435363738394185
:09097A00424344454600012F00F0
:100912001209C4E4F5991209ABE4F51AF52D74082D
:10092200252DF8E6FF1209F9052DE52DC394104097
:10093200ED12088C7FC01209EF741B2519F8E6FF2F
:100942001209F912088C8F2FE52F641060E3852FAE
:08095200993099FDC29980D98A
:1009C400759850758920758DFDD28ED2AFD2AC2228
:030023000209D4FB
:0E09D400309805C29885992C309902C299324C
:10088C0075900FE590640F60781209E2E590640FA3
:10089C00606FE4F51A75900FAF90EF24F56010249B
:1008AC00FE601114601324077012E4F519800D75A5
:1008BC001901800875190280037519037590F012DF
:1008CC0009E2AF90EF2450601124E0601124F06035
:1008DC001124707013851919800E74048006740825
:1008EC008002740C2519F519C3E530648094B2505C
:1008FC000DE59064F060071209E2053080EAE4F53A
:05090C0030AF197E0070
:0109110022C3
:0C09E2007F017E267D82DDFEDEFADFF65E
:0109EE0022E6
:10098400C2B68F807F017E00120995D2B77F057EA3
:010994000062
:10099500EF1FAA0670011E4A600BE4FDEDC3940D1E
:0509A50050EE0D80F78B
:0109AA00222A
:0A09EF00C2B7C2B5120984C2B722D4
:0A09F900C2B7D2B5120984C2B722BA
:1009AB007F381209EF7F0C1209EF7F061209EF7FD8
:0909BB00011209EF7F800209EF2F
:03000000020800F3
:0C080000787FE4F6D8FD758130020847CF
:10080C00020912E493A3F8E493A34003F68001F2E7
:10081C0008DFF48029E493A3F85407240CC8C333ED
:10082C00C4540F4420C8834004F456800146F6DFBC
:10083C00E4800B010204081020408090095AE47EE9
:10084C00019360BCA3FF543F30E509541FFEE493B1
:10085C00A360010ECF54C025E060A840B8E493A378
:10086C00FAE493A3F8E493A3C8C582C8CAC583CAA3
:10087C00F0A3C8C582C8CAC583CADFE9DEE780BE5B
:010983000073
:00000001FF
