:03000000020100FA
:10010000316D7F57311531D231DA31E27F0131154E
:1001100085409080F7C2AF758920758DF4758BF49A
:10012000758700D28E7598503098FDC298E5996415
:10013000E170F57599E23099FDC299784079003007
:1001400098FDC298E599F60829F9DFF33098FDC2C9
:1001500098E59969600A7599FF3099FDC29980C840
:1001600075990022316D31D231DA31E22275800188
:10017000317D758038317D75800F317D22C2B5C2E9
:10018000B6C2B731EAD2B7227F00EF9331C50FBFB5
:1001900039F8227F00EF9331C50FBF10F8227F009E
:1001A0007940E731C50F09BF38F8227F007978E739
:1001B00031C50F09BF0FF8227F007987E731C50FDE
:1001C00009BF10F822F580D2B5C2B6C2B731EAD263
:1001D000B722758040317D319E22758080317D311E
:1001E000AB227580C0317D31B8227B147CFADCFEF5
:0301F000DBFA2215
:00000001FF
