:03000000020030CB
:03000B00020210DE
:1000300051131198C2AF113B0200307840A6260838
:10004000A62708A63308A63208A6317F051150223C
:10005000758922758DF4758BF4758700D28E75982D
:10006000507599E13099FDC2993098FDC298E59993
:1000700064E270ED784079008699E926F9083099B4
:10008000FDC299DFF389993099FDC2993098FDC27C
:1000900098E599640070E122753000753100753281
:1000A00000758922758CFF758A0075A882D28C1123
:1000B000B1C281D281C2813080FDD28385A035C298
:1000C00083E535FF75330075320074002420D45069
:1000D0000EFC0532E532B40A057532000533ECDF5B
:0400E000EB510022BE
:10020000FE54F07D0403DDFDF531EE540FF5302290
:10021000B2823275A8021202201202AA1202CC2265
:100220001202452050012274CC1202707444120252
:10023000701202DC12024574CC12027074BE1202FB
:100240007012028822D28700C287780179FAD9FE1B
:10025000D8FAD28700780F308705D8FB020264D223
:1002600050020269C25002026D7878D8FED287220D
:100270007A08C2877B06DBFE1392877B14DBFED2F3
:10028000870000DAEDD287227C0279297A08D287AA
:100290000000C2870000D2877B05DBFEA2877B14AB
:1002A000DBFE13DAE9F719DCE322740F5529F52791
:1002B000E529C4F529E528C47829D6F526227B143A
:1002C0007CFADCFEDBFA227B20DBFE227DBE7CFAA0
:1002D000DCFEDDFA227FFA0000DFFC227E047DFADC
:0802E0001202D5DDFBDEF7225E
:00000001FF
