:03000000020030CB
:100030007590C012019A74001201B4900206120168
:10004000D075310075320074C01201B490020C12E8
:1000500001D01158117D80FA7F0511B28540358598
:100060004134854233854332854431E5326004159D
:1000700032017CE5336005753209153322D2A020A8
:10008000A003118D22D2A120A1C8119E227590003B
:10009000316C31011158D2A120A1F2119E2275902C
:1000A000FF315A900215317E1158D2A020A0EF11D5
:1000B0008D22C2AF758922758DF4758BF47587001A
:1000C000D28E7598503098FDC298E59964E170F52C
:1000D0007599E23099FDC299784079003098FDC257
:1000E00098E599F60829F9DFF33098FDC298E5996B
:1000F00069600A7599FF3099FDC29980C8759900A9
:1001000022E53575F00A84F52085F021E534782262
:100110007A0475F00AA475F01084F608E5F0DAF2B6
:1001200090021574851201B4E5209331C2E5219344
:1001300031C2742E1201C2E522931201C2E523934B
:100140001201C2E524931201C2E525931201C27483
:10015000DF1201C274431201C222748531B49002CD
:100160001F7F00EF9331C20FBF0BF82274C831B468
:0301700090021FDB
:100173007F00EF9331C20FBF08F82274C831B4E592
:10018300339331C2742E31C2E5329331C2E53193D8
:1001930031C2745631C22274011201B4743812018F
:1001A300B474381201B4740F1201B474061201B49A
:1001B30022F580C2B5C2B6C2B71201DCD2B722F5AE
:1001C30080D2B5C2B6C2B71201DCD2B722E49360C3
:1001D300071201C2A30201D0227B147C19DCFEDBCF
:1001E300FA227B20DBFE227D137C19DCFEDDFA2262
:1001F3007FFA0000DFFC227E047DFA1201F3DDFBAF
:10020300DEF72254454D503A00564F4C5441474572
:100213003A00303132333435363738392020202014
:09022300202020202020202020B2
:00000001FF
