:100000000200037580FF7590FF7590F0120069E59E
:1000100090B4F003020009E590B470057C00020082
:1000200039B4B0057C04020039B4D0057C08020064
:1000300039B4E0057C0C02003975900FE590B407E7
:10004000057B03020039B40B057B02020039B40DB5
:10005000057B01020039B40E057B0002005EEC2B2B
:1000600090007293F5800200097E197F64DFFEDE46
:10007000FA22C0F9A4B0999282F880908883C6A130
:02008000868E6A
:00000001FF
