:10000000758001112F758038112F75800F112F7594
:100010008006112F758080112F90005B113A75803A
:10002000C0112F900075113A7580C2112F80FEC249
:1000300095C296C2971152D297227900E993114541
:1000400009B400F822F580D295C296C2971152D217
:1000500097227FFF7EFFDEFEDFFA224469616E2079
:100060004B65203139303420202020202000000032
:10007000000000000059616E672059692057656EC5
:0F00800020202020202020000000000000000091
:00000001FF
