:100000000200031105110E1141114C115722758088
:1000100001111E758038111E75800F111E22C295A8
:10002000C296C2971162D297227F00EF9311340FCC
:10003000BF40F822F580D295C296C2971162D2973E
:1000400022758040111E90006B112922758080114D
:100050001E90009B1129227580C0111E9000AB11CB
:100060002922781479FAD9FED8FA22041F151F150F
:100070001F0407050B1B091F091D09080B1D0A1F7B
:100080001B0D0B0A0D0F181F0D0F080E1F150E0468
:100090001F040A0000000000000000000131393098
:1000A00034020304050505050505053832303631EF
:0B00B000393034323805050505050520
:00000001FF
