:100964001108204469616E4B6531393034797977E7
:100974003A4400111B30313233343536373839417B
:0609840042434445460019
:10090E0012098BE4F51AF52C7408252CF8E6FF1263
:10091E0009BB052CE52CC3941040ED12088C7FC04A
:0F092E001209B1741B2519F8E6FF1209BB80EC02
:10088C0075900FE590640F60781209A4E590640FE1
:10089C00606FE4F51A75900FAF90EF24F56010249B
:1008AC00FE601114601324077012E4F519800D75A5
:1008BC001901800875190280037519037590F012DF
:1008CC0009A4AF90EF2450601124E0601124F06073
:1008DC001124707013851919800E74048006740825
:1008EC008002740C2519F519C3E52D648094B2505F
:1008FC000DE59064F060071209A4052D80EAE4F57B
:01090C002DBD
:01090D0022C7
:0C09A4007F017E267D82DDFEDEFADFF69C
:0109B0002224
:10093D00C2B68F807F017E0012094ED2B77F057E31
:01094D0000A9
:10094E00EF1FAA0670011E4A600BE4FDEDC3940D65
:05095E0050EE0D80F7D2
:010963002271
:0A09B100C2B7C2B512093DC2B72259
:0A09BB00C2B7D2B512093DC2B7223F
:10098B007F381209B17F0C1209B17F061209B17FB2
:09099B00011209B17F800209B1CB
:03000000020800F3
:0C080000787FE4F6D8FD75812D020847D2
:10080C0002090EE493A3F8E493A34003F68001F2EB
:10081C0008DFF48029E493A3F85407240CC8C333ED
:10082C00C4540F4420C8834004F456800146F6DFBC
:10083C00E4800B0102040810204080900964E47EDF
:10084C00019360BCA3FF543F30E509541FFEE493B1
:10085C00A360010ECF54C025E060A840B8E493A378
:10086C00FAE493A3F8E493A3C8C582C8CAC583CAA3
:10087C00F0A3C8C582C8CAC583CADFE9DEE780BE5B
:01098A00006C
:00000001FF
